{
    "contractName": "SwapHandler",
    "abi": [
        {
            "inputs": [
                {
                    "internalType": "contract ISwapRouter",
                    "name": "_swapRouter",
                    "type": "address"
                },
                {
                    "internalType": "contract IWETH9",
                    "name": "_IWETH9",
                    "type": "address"
                },
                {
                    "internalType": "contract IERC20withBurn",
                    "name": "_WDARC",
                    "type": "address"
                },
                {
                    "internalType": "address",
                    "name": "_USDC",
                    "type": "address"
                }
            ],
            "stateMutability": "nonpayable",
            "type": "constructor"
        },
        {
            "anonymous": false,
            "inputs": [
                {
                    "indexed": true,
                    "internalType": "address",
                    "name": "previousOwner",
                    "type": "address"
                },
                {
                    "indexed": true,
                    "internalType": "address",
                    "name": "newOwner",
                    "type": "address"
                }
            ],
            "name": "OwnershipTransferred",
            "type": "event"
        },
        {
            "inputs": [],
            "name": "USDC",
            "outputs": [
                {
                    "internalType": "address",
                    "name": "",
                    "type": "address"
                }
            ],
            "stateMutability": "view",
            "type": "function"
        },
        {
            "inputs": [],
            "name": "WDARC",
            "outputs": [
                {
                    "internalType": "contract IERC20withBurn",
                    "name": "",
                    "type": "address"
                }
            ],
            "stateMutability": "view",
            "type": "function"
        },
        {
            "inputs": [],
            "name": "WETH9",
            "outputs": [
                {
                    "internalType": "contract IWETH9",
                    "name": "",
                    "type": "address"
                }
            ],
            "stateMutability": "view",
            "type": "function"
        },
        {
            "inputs": [
                {
                    "internalType": "string",
                    "name": "symbol",
                    "type": "string"
                },
                {
                    "internalType": "address",
                    "name": "tokenAddress",
                    "type": "address"
                }
            ],
            "name": "addTokenContractAddress",
            "outputs": [
                {
                    "internalType": "address",
                    "name": "",
                    "type": "address"
                }
            ],
            "stateMutability": "nonpayable",
            "type": "function"
        },
        {
            "inputs": [],
            "name": "owner",
            "outputs": [
                {
                    "internalType": "address",
                    "name": "",
                    "type": "address"
                }
            ],
            "stateMutability": "view",
            "type": "function"
        },
        {
            "inputs": [],
            "name": "poolFee",
            "outputs": [
                {
                    "internalType": "uint24",
                    "name": "",
                    "type": "uint24"
                }
            ],
            "stateMutability": "view",
            "type": "function"
        },
        {
            "inputs": [],
            "name": "renounceOwnership",
            "outputs": [],
            "stateMutability": "nonpayable",
            "type": "function"
        },
        {
            "inputs": [
                {
                    "internalType": "uint256",
                    "name": "amountIn",
                    "type": "uint256"
                },
                {
                    "internalType": "string",
                    "name": "token_symbol",
                    "type": "string"
                }
            ],
            "name": "swapDARCtoERC20",
            "outputs": [
                {
                    "internalType": "uint256",
                    "name": "amountOut",
                    "type": "uint256"
                }
            ],
            "stateMutability": "nonpayable",
            "type": "function"
        },
        {
            "inputs": [
                {
                    "internalType": "uint256",
                    "name": "amountIn",
                    "type": "uint256"
                }
            ],
            "name": "swapDARCtoETH",
            "outputs": [
                {
                    "internalType": "uint256",
                    "name": "amountOut",
                    "type": "uint256"
                }
            ],
            "stateMutability": "payable",
            "type": "function"
        },
        {
            "inputs": [
                {
                    "internalType": "uint256",
                    "name": "amountIn",
                    "type": "uint256"
                },
                {
                    "internalType": "string",
                    "name": "token_symbol",
                    "type": "string"
                }
            ],
            "name": "swapERC20toDARC",
            "outputs": [
                {
                    "internalType": "uint256",
                    "name": "amountOut",
                    "type": "uint256"
                }
            ],
            "stateMutability": "nonpayable",
            "type": "function"
        },
        {
            "inputs": [],
            "name": "swapETHtoDARC",
            "outputs": [
                {
                    "internalType": "uint256",
                    "name": "amountOut",
                    "type": "uint256"
                }
            ],
            "stateMutability": "payable",
            "type": "function"
        },
        {
            "inputs": [],
            "name": "swapRouter",
            "outputs": [
                {
                    "internalType": "contract ISwapRouter",
                    "name": "",
                    "type": "address"
                }
            ],
            "stateMutability": "view",
            "type": "function"
        },
        {
            "inputs": [
                {
                    "internalType": "string",
                    "name": "",
                    "type": "string"
                }
            ],
            "name": "tokenContractAddress",
            "outputs": [
                {
                    "internalType": "address",
                    "name": "",
                    "type": "address"
                }
            ],
            "stateMutability": "view",
            "type": "function"
        },
        {
            "inputs": [
                {
                    "internalType": "address",
                    "name": "newOwner",
                    "type": "address"
                }
            ],
            "name": "transferOwnership",
            "outputs": [],
            "stateMutability": "nonpayable",
            "type": "function"
        },
        {
            "stateMutability": "payable",
            "type": "receive"
        }
    ],
    "bytecode": "6101006040523480156200001257600080fd5b50604051620018e7380380620018e78339810160408190526200003591620000cc565b620000496200004362000078565b6200007c565b6001600160601b0319606093841b811660a05293831b841660805290821b831660c052901b1660e0526200014c565b3390565b600080546001600160a01b038381166001600160a01b0319831681178455604051919092169283917f8be0079c531659141344cd1fd0a4f28419497f9722a3daafe3b4186f6b6457e09190a35050565b60008060008060808587031215620000e2578384fd5b8451620000ef8162000133565b6020860151909450620001028162000133565b6040860151909350620001158162000133565b6060860151909250620001288162000133565b939692955090935050565b6001600160a01b03811681146200014957600080fd5b50565b60805160601c60a05160601c60c05160601c60e05160601c6116986200024f600039600081816103e20152818161071f01528181610a4f01528181610dc40152610f800152600081816104040152818161051a0152818161059f01528181610642015281816106fb015281816108ca0152818161096d01528181610a2b01528181610de801528181610efc0152610ffd015260008181610277015281816102fd015281816103be0152818161088e01528181610a710152610b8701526000818161032d015281816104640152818161066f015281816107b40152818161099a01528181610ad101528181610d0301528181610e460152610fd901526116986000f3fe6080604052600436106100e15760003560e01c806389a302711161007f578063c31c9c0711610059578063c31c9c0714610203578063dc84f1d314610218578063f2fde38b1461022d578063fc4367701461024d576100e8565b806389a30271146101b95780638da5cb5b146101ce578063c2794a5c146101e3576100e8565b80634aa4a4fc116100bb5780634aa4a4fc1461014d578063540d26f51461016f57806356dbeb9b14610182578063715018a6146101a2576100e8565b8063089fe6aa146100ed57806347de79541461011857806349e316b61461012d576100e8565b366100e857005b600080fd5b3480156100f957600080fd5b5061010261026d565b60405161010f9190611603565b60405180910390f35b610120610273565b60405161010f9190611613565b34801561013957600080fd5b506101206101483660046113f9565b610585565b34801561015957600080fd5b5061016261088c565b60405161010f91906114ac565b61012061017d3660046113c9565b6108b0565b34801561018e57600080fd5b5061012061019d3660046113f9565b610c22565b3480156101ae57600080fd5b506101b7610f6a565b005b3480156101c557600080fd5b50610162610f7e565b3480156101da57600080fd5b50610162610fa2565b3480156101ef57600080fd5b506101626101fe366004611342565b610fb1565b34801561020f57600080fd5b50610162610fd7565b34801561022457600080fd5b50610162610ffb565b34801561023957600080fd5b506101b7610248366004611301565b61101f565b34801561025957600080fd5b5061016261026836600461137d565b611062565b610bb881565b60007f00000000000000000000000000000000000000000000000000000000000000006001600160a01b031663d0e30db0346040518263ffffffff1660e01b81526004016000604051808303818588803b1580156102d057600080fd5b505af11580156102e4573d6000803e3d6000fd5b505060405163095ea7b360e01b81526001600160a01b037f000000000000000000000000000000000000000000000000000000000000000016935063095ea7b3925061035791507f00000000000000000000000000000000000000000000000000000000000000009034906004016114e4565b602060405180830381600087803b15801561037157600080fd5b505af1158015610385573d6000803e3d6000fd5b505050506040513d601f19601f820116820180604052508101906103a99190611322565b506040805160a081019091526000908061042c7f0000000000000000000000000000000000000000000000000000000000000000610bb87f0000000000000000000000000000000000000000000000000000000000000000817f000000000000000000000000000000000000000000000000000000000000000060c0870161143e565b6040516020818303038152906040528152602001306001600160a01b03168152602001428152602001348152602001600081525090507f00000000000000000000000000000000000000000000000000000000000000006001600160a01b031663c04b8d59826040518263ffffffff1660e01b81526004016104ae9190611594565b602060405180830381600087803b1580156104c857600080fd5b505af11580156104dc573d6000803e3d6000fd5b505050506040513d601f19601f8201168201806040525081019061050091906113e1565b604051630852cd8d60e31b81529092506001600160a01b037f000000000000000000000000000000000000000000000000000000000000000016906342966c689061054f908590600401611613565b600060405180830381600087803b15801561056957600080fd5b505af115801561057d573d6000803e3d6000fd5b505050505090565b6040516323b872dd60e01b81526000906001600160a01b037f000000000000000000000000000000000000000000000000000000000000000016906323b872dd906105d8903390309088906004016114c0565b602060405180830381600087803b1580156105f257600080fd5b505af1158015610606573d6000803e3d6000fd5b505050506040513d601f19601f8201168201806040525081019061062a9190611322565b5060405163095ea7b360e01b81526001600160a01b037f0000000000000000000000000000000000000000000000000000000000000000169063095ea7b390610699907f00000000000000000000000000000000000000000000000000000000000000009087906004016114e4565b602060405180830381600087803b1580156106b357600080fd5b505af11580156106c7573d6000803e3d6000fd5b505050506040513d601f19601f820116820180604052508101906106eb9190611322565b5060006040518060a001604052807f0000000000000000000000000000000000000000000000000000000000000000610bb87f0000000000000000000000000000000000000000000000000000000000000000610bb86001896040516107519190611490565b908152604051602091819003820181205461077c96959493926001600160a01b03909116910161143e565b6040516020818303038152906040528152602001306001600160a01b03168152602001428152602001858152602001600081525090507f00000000000000000000000000000000000000000000000000000000000000006001600160a01b031663c04b8d59826040518263ffffffff1660e01b81526004016107fe9190611594565b602060405180830381600087803b15801561081857600080fd5b505af115801561082c573d6000803e3d6000fd5b505050506040513d601f19601f8201168201806040525081019061085091906113e1565b91506108856001846040516108659190611490565b908152604051908190036020019020546001600160a01b031633846110dc565b5092915050565b7f000000000000000000000000000000000000000000000000000000000000000081565b6040516323b872dd60e01b81526000906001600160a01b037f000000000000000000000000000000000000000000000000000000000000000016906323b872dd90610903903390309087906004016114c0565b602060405180830381600087803b15801561091d57600080fd5b505af1158015610931573d6000803e3d6000fd5b505050506040513d601f19601f820116820180604052508101906109559190611322565b5060405163095ea7b360e01b81526001600160a01b037f0000000000000000000000000000000000000000000000000000000000000000169063095ea7b3906109c4907f00000000000000000000000000000000000000000000000000000000000000009086906004016114e4565b602060405180830381600087803b1580156109de57600080fd5b505af11580156109f2573d6000803e3d6000fd5b505050506040513d601f19601f82011682018060405250810190610a169190611322565b506040805160a0810190915260009080610a997f0000000000000000000000000000000000000000000000000000000000000000610bb87f0000000000000000000000000000000000000000000000000000000000000000817f000000000000000000000000000000000000000000000000000000000000000060c0870161143e565b6040516020818303038152906040528152602001306001600160a01b03168152602001428152602001848152602001600081525090507f00000000000000000000000000000000000000000000000000000000000000006001600160a01b031663c04b8d59826040518263ffffffff1660e01b8152600401610b1b9190611594565b602060405180830381600087803b158015610b3557600080fd5b505af1158015610b49573d6000803e3d6000fd5b505050506040513d601f19601f82011682018060405250810190610b6d91906113e1565b604051632e1a7d4d60e01b81529092506001600160a01b037f00000000000000000000000000000000000000000000000000000000000000001690632e1a7d4d90610bbc908590600401611613565b600060405180830381600087803b158015610bd657600080fd5b505af1158015610bea573d6000803e3d6000fd5b505060405133925084156108fc02915084906000818181858888f19350505050158015610c1b573d6000803e3d6000fd5b5050919050565b6000600182604051610c349190611490565b908152604051908190036020018120546323b872dd60e01b82526001600160a01b0316906323b872dd90610c70903390309088906004016114c0565b602060405180830381600087803b158015610c8a57600080fd5b505af1158015610c9e573d6000803e3d6000fd5b505050506040513d601f19601f82011682018060405250810190610cc29190611322565b50600182604051610cd39190611490565b9081526040519081900360200181205463095ea7b360e01b82526001600160a01b03169063095ea7b390610d2d907f00000000000000000000000000000000000000000000000000000000000000009087906004016114e4565b602060405180830381600087803b158015610d4757600080fd5b505af1158015610d5b573d6000803e3d6000fd5b505050506040513d601f19601f82011682018060405250810190610d7f9190611322565b5060006040518060a00160405280600185604051610d9d9190611490565b9081526040516020918190038201812054610e0e926001600160a01b0390911691610bb8917f00000000000000000000000000000000000000000000000000000000000000009183917f0000000000000000000000000000000000000000000000000000000000000000910161143e565b6040516020818303038152906040528152602001306001600160a01b03168152602001428152602001858152602001600081525090507f00000000000000000000000000000000000000000000000000000000000000006001600160a01b031663c04b8d59826040518263ffffffff1660e01b8152600401610e909190611594565b602060405180830381600087803b158015610eaa57600080fd5b505af1158015610ebe573d6000803e3d6000fd5b505050506040513d601f19601f82011682018060405250810190610ee291906113e1565b604051630852cd8d60e31b81529092506001600160a01b037f000000000000000000000000000000000000000000000000000000000000000016906342966c6890610f31908590600401611613565b600060405180830381600087803b158015610f4b57600080fd5b505af1158015610f5f573d6000803e3d6000fd5b505050505092915050565b610f726111d1565b610f7c6000611210565b565b7f000000000000000000000000000000000000000000000000000000000000000081565b6000546001600160a01b031690565b80516020818301810180516001825292820191909301209152546001600160a01b031681565b7f000000000000000000000000000000000000000000000000000000000000000081565b7f000000000000000000000000000000000000000000000000000000000000000081565b6110276111d1565b6001600160a01b0381166110565760405162461bcd60e51b815260040161104d906114fd565b60405180910390fd5b61105f81611210565b50565b600061106c6111d1565b8160018460405161107d9190611490565b90815260405190819003602001812080546001600160a01b03939093166001600160a01b0319909316929092179091556001906110bb908590611490565b908152604051908190036020019020546001600160a01b0316905092915050565b600080846001600160a01b031663a9059cbb60e01b85856040516024016111049291906114e4565b60408051601f198184030181529181526020820180516001600160e01b03166001600160e01b03199094169390931790925290516111429190611490565b6000604051808303816000865af19150503d806000811461117f576040519150601f19603f3d011682016040523d82523d6000602084013e611184565b606091505b50915091508180156111ae5750805115806111ae5750808060200190518101906111ae9190611322565b6111ca5760405162461bcd60e51b815260040161104d90611543565b5050505050565b6111d9611260565b6001600160a01b03166111ea610fa2565b6001600160a01b031614610f7c5760405162461bcd60e51b815260040161104d9061155f565b600080546001600160a01b038381166001600160a01b0319831681178455604051919092169283917f8be0079c531659141344cd1fd0a4f28419497f9722a3daafe3b4186f6b6457e09190a35050565b3390565b80356001600160a01b038116811461127b57600080fd5b919050565b600082601f830112611290578081fd5b813567ffffffffffffffff808211156112ab576112ab61164c565b604051601f8301601f1916810160200182811182821017156112cf576112cf61164c565b6040528281528483016020018610156112e6578384fd5b82602086016020830137918201602001929092529392505050565b600060208284031215611312578081fd5b61131b82611264565b9392505050565b600060208284031215611333578081fd5b8151801515811461131b578182fd5b600060208284031215611353578081fd5b813567ffffffffffffffff811115611369578182fd5b61137584828501611280565b949350505050565b6000806040838503121561138f578081fd5b823567ffffffffffffffff8111156113a5578182fd5b6113b185828601611280565b9250506113c060208401611264565b90509250929050565b6000602082840312156113da578081fd5b5035919050565b6000602082840312156113f2578081fd5b5051919050565b6000806040838503121561140b578182fd5b82359150602083013567ffffffffffffffff811115611428578182fd5b61143485828601611280565b9150509250929050565b6bffffffffffffffffffffffff19606096871b811682526001600160e81b031960e896871b8116601484015294871b811660178301529290941b909216602b840152921b909116602e82015260420190565b600082516114a281846020870161161c565b9190910192915050565b6001600160a01b0391909116815260200190565b6001600160a01b039384168152919092166020820152604081019190915260600190565b6001600160a01b03929092168252602082015260400190565b60208082526026908201527f4f776e61626c653a206e6577206f776e657220697320746865207a65726f206160408201526564647265737360d01b606082015260800190565b60208082526002908201526114d560f21b604082015260600190565b6020808252818101527f4f776e61626c653a2063616c6c6572206973206e6f7420746865206f776e6572604082015260600190565b600060208252825160a0602084015280518060c08501526115bc8160e086016020850161161c565b60018060a01b0360208601511660408501526040850151606085015260608501516080850152608085015160a085015260e0601f19601f8301168501019250505092915050565b62ffffff91909116815260200190565b90815260200190565b60005b8381101561163757818101518382015260200161161f565b83811115611646576000848401525b50505050565b634e487b7160e01b600052604160045260246000fdfea26469706673582212209221e9d72f56afed6f4e5557224f8dc9aa14dd0b68ae1105f6d83db242df64e064736f6c63430008000033",
    "sourcePath": "/Users/park/ethBridge/swap-contract/contracts/knstlSwap.sol",
    "compiler": {
        "name": "solc",
        "version": "0.8.0+commit.c7dfd78e"
    },
    "functionHashes": {
        "USDC()": "89a30271",
        "WDARC()": "dc84f1d3",
        "WETH9()": "4aa4a4fc",
        "addTokenContractAddress(string,address)": "fc436770",
        "owner()": "8da5cb5b",
        "poolFee()": "089fe6aa",
        "renounceOwnership()": "715018a6",
        "swapDARCtoERC20(uint256,string)": "49e316b6",
        "swapDARCtoETH(uint256)": "540d26f5",
        "swapERC20toDARC(uint256,string)": "56dbeb9b",
        "swapETHtoDARC()": "47de7954",
        "swapRouter()": "c31c9c07",
        "tokenContractAddress(string)": "c2794a5c",
        "transferOwnership(address)": "f2fde38b"
    },
    "gasEstimates": {
        "creation": {
            "codeDepositCost": "1156800",
            "executionCost": "infinite",
            "totalCost": "infinite"
        },
        "external": {
            "USDC()": "infinite",
            "WDARC()": "infinite",
            "WETH9()": "infinite",
            "addTokenContractAddress(string,address)": "infinite",
            "owner()": "1115",
            "poolFee()": "264",
            "renounceOwnership()": "infinite",
            "swapDARCtoERC20(uint256,string)": "infinite",
            "swapDARCtoETH(uint256)": "infinite",
            "swapERC20toDARC(uint256,string)": "infinite",
            "swapETHtoDARC()": "infinite",
            "swapRouter()": "infinite",
            "tokenContractAddress(string)": "infinite",
            "transferOwnership(address)": "23789"
        }
    }
}